:100000000C942A000C943F000C943F000C943F0089
:100010000C943F000C943F000C943F000C943F0064
:100020000C943F000C943F000C944A000C943F0049
:100030000C943F000C943F000C943F000C943F0044
:100040000C943F000C943F000C943F000C943F0034
:100050000C943F0011241FBECFE5D8E0DEBFCDBF1A
:1000600010E0A0E6B0E0E6EEF4E002C005900D92EC
:10007000A436B107D9F70E9441000C9471020C9488
:1000800000008FEF87BB80916200909163000E9417
:10009000B900FFCF1F920F920FB60F9211242F932A
:1000A0003F934F935F936F937F938F939F93AF9300
:1000B000BF93EF93FF938091620090916300843629
:1000C000910529F410926100109260000CC080919B
:1000D000620090916300892B31F481E090E090936D
:1000E0006100809360008091600090916100892B95
:1000F00051F08091620090916300059690936300A7
:100100008093620009C0809162009091630005971E
:1001100090936300809362008091620090916300ED
:100120000E94B900FF91EF91BF91AF919F918F9184
:100130007F916F915F914F913F912F910F900FBEE3
:100140000F901F901895682F70E080E090E00E945B
:10015000780120E030E048EC52E40E94D50020E035
:1001600030E04FE753E40E9404020E9447016CBF55
:10017000089593B7906493BF93B7986093BF0E941C
:10018000A30089B7826089BF789483B78F7E83BFCD
:1001900083B7806283BF83B7816083BF83B78D7F5E
:1001A00083BF83B7846083BF08950E94E9000C94E5
:1001B000CA010E94C30158F00E94BC0140F029F41A
:1001C0005F3F29F00C94B30151110C94FE010C9483
:1001D000B9010E94DB0168F39923B1F3552391F330
:1001E000951B550BBB27AA2762177307840738F0A6
:1001F0009F5F5F4F220F331F441FAA1FA9F335D003
:100200000E2E3AF0E0E832D091505040E695001CB6
:10021000CAF72BD0FE2F29D0660F771F881FBB1F70
:10022000261737074807AB07B0E809F0BB0B802D4E
:10023000BF01FF2793585F4F3AF09E3F510578F07A
:100240000C94B3010C94FE015F3FE4F3983ED4F3A9
:10025000869577956795B795F7959F5FC9F7880F4E
:10026000911D9695879597F90895E1E0660F771FA0
:10027000881FBB1F621773078407BA0720F0621B31
:10028000730B840BBA0BEE1F88F7E09508950E945C
:10029000E30188F09F5798F0B92F9927B751B0F034
:1002A000E1F0660F771F881F991F1AF0BA95C9F7FA
:1002B00014C0B13091F00E94FD01B1E008950C949A
:1002C000FD01672F782F8827B85F39F0B93FCCF34D
:1002D000869577956795B395D9F73EF49095809577
:1002E000709561957F4F8F4F9F4F0895E89409C097
:1002F00097FB3EF490958095709561957F4F8F4F59
:100300009F4F9923A9F0F92F96E9BB279395F6956E
:10031000879577956795B795F111F8CFFAF4BB0FEC
:1003200011F460FF1BC06F5F7F4F8F4F9F4F16C050
:10033000882311F096E911C0772321F09EE8872FDA
:10034000762F05C0662371F096E8862F70E060E096
:100350002AF09A95660F771F881FDAF7880F96950F
:10036000879597F9089597F99F6780E870E060E0B6
:1003700008959FEF80EC089500240A94161617063E
:1003800018060906089500240A9412161306140686
:1003900005060895092E0394000C11F4882352F0E9
:1003A000BB0F40F4BF2B11F460FF04C06F5F7F4FA1
:1003B0008F4F9F4F089557FD9058440F551F59F088
:1003C0005F3F71F04795880F97FB991F61F09F3F42
:1003D00079F087950895121613061406551FF2CF6B
:1003E0004695F1DF08C0161617061806991FF1CFBB
:1003F00086957105610508940895E894BB276627E2
:100400007727CB0197F908950E9417020C94CA012F
:100410000E94BC0138F00E94C30120F0952311F026
:100420000C94B3010C94B90111240C94FE010E94A8
:10043000DB0170F3959FC1F3950F50E0551F629F4C
:10044000F001729FBB27F00DB11D639FAA27F00D2D
:10045000B11DAA1F649F6627B00DA11D661F829F54
:100460002227B00DA11D621F739FB00DA11D621F39
:10047000839FA00D611D221F749F3327A00D611D56
:10048000231F849F600D211D822F762F6A2F112438
:100490009F5750409AF0F1F088234AF0EE0FFF1F6B
:1004A000BB1F661F771F881F91505040A9F79E3FC2
:1004B000510580F00C94B3010C94FE015F3FE4F30E
:1004C000983ED4F3869577956795B795F795E79518
:1004D0009F5FC1F7FE2B880F911D9695879597F921
:0604E0000895F894FFCF1F
:0404E600010005000C
:00000001FF
